:020000040800F2
:10000000000002207D090008890800089708000800
:100010009D080008A3080008A908000800000000C7
:10002000000000000000000000000000AF08000811
:10003000BD08000800000000CB080008D90800082F
:10004000CD090008CD090008CD090008CD09000838
:10005000CD090008CD090008CD090008CD09000828
:10006000CD090008CD090008CD090008CD09000818
:10007000CD090008CD090008CD090008CD09000808
:10008000CD090008CD090008CD090008CD090008F8
:10009000CD090008CD090008CD090008CD090008E8
:1000A000CD090008CD090008CD090008CD090008D8
:1000B000CD090008CD090008CD090008CD090008C8
:1000C000CD090008CD090008CD090008CD090008B8
:1000D000CD090008CD090008CD090008CD090008A8
:1000E000CD090008CD090008CD090008CD09000898
:1000F000CD090008CD090008CD090008CD09000888
:10010000CD090008CD090008CD090008CD09000877
:10011000CD090008CD090008CD090008CD09000867
:10012000CD090008CD090008CD090008CD09000857
:10013000CD090008CD090008CD090008CD09000847
:10014000CD090008CD090008CD090008E508000820
:10015000CD090008CD090008CD090008CD09000827
:10016000CD090008CD090008CD090008CD09000817
:10017000CD090008CD090008CD09000800000000E5
:08018000CD090008CD090008BB
:1001880010B5054C237833B9044B13B10448AFF3C9
:1001980000800123237010BDE4010020000000004E
:1001A800506E000808B5034B1BB103490348AFF371
:1001B800008008BD00000000E8010020506E000823
:1001C800034613F8012B002AFBD1181A013870478F
:1001D80053B94AB9002908BF00281CBF4FF0FF31A6
:1001E8004FF0FF3000F072B9ADF1080C6DE904CEA4
:1001F80000F006F8DDF804E0DDE9022304B07047FA
:100208002DE9F047089E04468846002B4BD18A42C8
:10021800154667D9B2FA82F24AB1C2F1200701FA4B
:1002280002F320FA07F7954047EA030894404FEA9B
:10023800154E230CB8FBFEF71FFA85FC0EFB17883A
:1002480043EA084307FB0CF1994209D9EB1807F177
:10025800FF3080F01B81994240F21881023F2B4405
:100268005B1AA4B2B3FBFEF00EFB103344EA03445E
:1002780000FB0CFCA44509D92C1900F1FF3380F0D0
:100288000781A44540F2048102382C4440EA074023
:10029800A4EB0C0400271EB1D4400023C6E9004398
:1002A8003946BDE8F0878B4209D9002E00F0EB8073
:1002B8000027C6E9000138463946BDE8F087B3FA99
:1002C80083F7002F47D18B4202D3824200F2FA8093
:1002D800841A61EB030301209846002EE0D0C6E99A
:1002E8000048DDE702B9FFDEB2FA82F2002A40F0E8
:1002F8008F80491B4FEA154E1FFA85F80127B1FB7D
:10030800FEFC230C0EFB1C1143EA014308FB0CF115
:10031800994207D9EB180CF1FF3002D2994200F24A
:10032800CD808446591AA3B2B1FBFEF00EFB10141F
:1003380043EA044408FB00F8A04507D92C1900F14A
:10034800FF3302D2A04500F2B6801846A4EB080499
:1003580040EA0C409FE7C7F1200CBB4022FA0CFE94
:100368004EEA030E01FA07F420FA0CF521FA0CF311
:100378004FEA1E482543B3FBF8F92C0C08FB193348
:100388001FFA8EFA44EA034309FB0AF49C4202FA74
:1003980007F200FA07F10BD91EEB030309F1FF304E
:1003A80080F087809C4240F28480A9F1020973445E
:1003B8001B1BADB2B3FBF8F008FB103345EA03444E
:1003C80000FB0AFAA24508D91EEB040400F1FF332A
:1003D8006BD2A24569D90238744440EA0940A0FBAF
:1003E8000289A4EB0A044C45C2464B4654D351D06B
:1003F800002E69D0B1EB0A0564EB030404FA0CFC87
:10040800FD40FC404CEA0505C6E90054002747E7D3
:10041800C2F1200320FA03F7954001FA02F021FA0D
:1004280003F34FEA154E3843010CB3FBFEF71FFAEE
:1004380085F80EFB173341EA034107FB08F38B42AB
:1004480004FA02F407D9691807F1FF3C2FD28B424E
:100458002DD9023F2944CB1A81B2B3FBFEF00EFB23
:10046800103341EA034100FB08F38B4207D96918AE
:1004780000F1FF3C17D28B4215D902382944C91A1A
:1004880040EA07473BE73746304609E70746E7E6CD
:100498001846FBE64145ABD2B8EB020A69EB0E02FF
:1004A80001381346A4E76046E9E7184695E767462A
:1004B800D1E781467CE702382C4447E7ACF1020CCF
:1004C8002B442FE7384608E73746E9E6704700BF70
:1004D800B0B586B000AF3B461A4A1C4615460FCD4C
:1004E8000FC42B68238000F06FFA00F02FF800F09B
:1004F800C1F800F095F805F0ABFE4FF4FA7000F083
:10050800D5FA4FF48041104800F0B7FD4FF4805100
:100518000D4800F0B2FD4FF400410B4800F0ADFD6E
:100528004FF40051084800F0A8FD3B461846FFF775
:1005380047FE03469AB23B461146184605F046FF69
:10054800DBE700BF686E0008000C024080B594B07D
:1005580000AF07F1200330220021184606F0B2FB55
:1005680007F10C0300221A605A609A60DA601A6177
:100578000023BB60284B1B6C274A43F0805313644D
:10058800254B1B6C03F08053BB60BB6800237B606A
:10059800224B1B68214A43F4804313601F4B1B689E
:1005A80003F480437B607B6801233B624FF4803314
:1005B8007B620223BB634FF48003FB6304233B6429
:1005C800A8237B640223BB640723FB6407F1200391
:1005D800184601F0F1FE0346002B01D000F0B8F8F0
:1005E8000F23FB6002233B6100237B614FF4A05380
:1005F800BB614FF48053FB6107F10C0305211846DA
:1006080002F04AF90346002B01D000F0A1F800BF20
:100618005037BD4680BD00BF003802400070004022
:1006280080B500AF114B124A1A60104B4FF4E132FB
:100638005A600E4B00229A600C4B0022DA600B4B7A
:1006480000221A61094B0C225A61084B00229A6158
:10065800064B0022DA61054802F010FB0346002B26
:1006680001D000F075F800BF80BD00BF1002002067
:100678000044004080B58AB000AF07F1140300229F
:100688001A605A609A60DA601A6100233B612D4B48
:100698001B6B2C4A43F0040313632A4B1B6B03F0B8
:1006A80004033B613B690023FB60264B1B6B254A17
:1006B80043F080031363234B1B6B03F08003FB6041
:1006C800FB680023BB601F4B1B6B1E4A43F00103F2
:1006D80013631C4B1B6B03F00103BB60BB68002357
:1006E8007B60184B1B6B174A43F008031363154BC9
:1006F8001B6B03F008037B607B6800224FF470419A
:10070800114800F0A1FC01237B610023BB61002399
:10071800FB6107F1140319460C4800F0FBFA4FF48B
:1007280070437B610123BB610023FB6100233B62B3
:1007380007F114031946044800F0ECFA00BF283703
:10074800BD4680BD00380240000C02400000024057
:1007580080B400AF00BFBD465DF8047B7047000061
:1007680080B483B000AF00237B60104B5B6C0F4AF2
:1007780043F4804353640D4B5B6C03F480437B600C
:100788007B6800233B60094B1B6C084A43F080538D
:100798001364064B1B6C03F080533B603B6800BF3F
:1007A8000C37BD465DF8047B704700BF0038024037
:1007B80080B58AB000AF786007F1140300221A6090
:1007C8005A609A60DA601A617B681B68284A93420B
:1007D80049D100233B61274B1B6C264A43F4003365
:1007E8001364244B1B6C03F400333B613B69002307
:1007F800FB60204B1B6B1F4A43F0010313631D4B27
:100808001B6B03F00103FB60FB680023BB60194B03
:100818001B6B184A43F008031363164B1B6B03F05A
:100828000803BB60BB6804237B610223BB61002310
:10083800FB6103233B6207237B6207F1140319461C
:100848000D4800F067FA40237B610223BB61002357
:10085800FB6103233B6207237B6207F114031946FC
:10086800064800F057FA00BF2837BD4680BD00BFD4
:10087800004400400038024000000240000C0240E2
:1008880080B400AF00BFBD465DF8047B704780B4FC
:1008980000AFFEE780B400AFFEE780B400AFFEE72C
:1008A80080B400AFFEE780B400AF00BFBD465DF87E
:1008B800047B704780B400AF00BFBD465DF8047B81
:1008C800704780B400AF00BFBD465DF8047B704739
:1008D80080B500AF00F0CAF800BF80BD80B500AF9A
:1008E800024800F035FD00BF80BD00BF241700207E
:1008F80080B584B000AF7860114B1B68002B02D123
:100908000F4B104A1A600E4B1B68FB600C4B1A68A1
:100918007B6813446A46934207D906F099F9024660
:100928000C2313604FF0FF3306E0054B1A687B6811
:100938001344034A1360FB6818461037BD4680BD50
:1009480000020020301B002080B400AF084BD3F811
:100958008830074A43F47003C2F88830044B4FF0DC
:1009680000629A6000BFBD465DF8047B704700BF17
:1009780000ED00E0DFF834D0002103E00C4B5B58B9
:10098800435004310B480C4B42189A42F6D30B4A99
:1009980002E0002342F8043B094B9A42F9D3FFF7DF
:1009A800D3FF06F05BF9FFF793FD704700000220C4
:1009B800EC6E000800000020E4010020E4010020A3
:1009C800301B0020FEE7000080B500AF0E4B1B680F
:1009D8000D4A43F4007313600B4B1B680A4A43F437
:1009E80080631360084B1B68074A43F480731360E5
:1009F800032000F04DF9002000F008F8FFF7B0FEE2
:100A08000023184680BD00BF003C024080B582B07C
:100A180000AF7860124B1A68124B1B7819464FF4D6
:100A28007A73B3FBF1F3B2FBF3F3184600F065F900
:100A38000346002B01D001230EE07B680F2B0AD858
:100A4800002279684FF0FF3000F02DF9064A7B68E4
:100A58001360002300E0012318460837BD4680BD17
:100A680000000020080000200400002080B400AF2F
:100A7800064B1B781A46064B1B681344044A13603E
:100A880000BFBD465DF8047B704700BF080000202A
:100A98005002002080B400AF034B1B681846BD46C7
:100AA8005DF8047B704700BF5002002080B584B019
:100AB80000AF7860FFF7EEFFB8607B68FB60FB680B
:100AC800B3F1FF3F05D0094B1B781A46FB68134466
:100AD800FB6000BFFFF7DEFF0246BB68D31AFA6867
:100AE8009A42F7D800BF1037BD4680BD08000020E5
:100AF80080B485B000AF78607B6803F00703FB60C3
:100B08000C4BDB68BB60BA684FF6FF031340BB6051
:100B1800FB681A02BB68134343F0BF6343F4003316
:100B2800BB60044ABB68D36000BF1437BD465DF89C
:100B3800047B704700ED00E080B400AF044BDB6835
:100B48001B0A03F007031846BD465DF8047B70478F
:100B580000ED00E080B483B000AF0346FB7197F965
:100B68000730002B0BDBFB7903F01F02074997F9CD
:100B780007305B09012000FA02F241F8232000BF88
:100B88000C37BD465DF8047B704700BF00E100E00C
:100B980080B483B000AF03463960FB7197F9073022
:100BA800002B0ADB3B68DAB20C4997F907301201CF
:100BB800D2B20B4483F800230AE03B68DAB2084952
:100BC800FB7903F00F03043B1201D2B20B441A76EF
:100BD80000BF0C37BD465DF8047B704700E100E0BC
:100BE80000ED00E080B489B000AFF860B9607A60C9
:100BF800FB6803F00703FB61FB69C3F10703042BE0
:100C080028BF0423BB61FB690433062B02D9FB69A7
:100C1800033B00E000237B614FF0FF32BB6902FA1F
:100C280003F3DA43BB681A407B699A404FF0FF31FF
:100C38007B6901FA03F3D9437B680B4013431846D9
:100C48002437BD465DF8047B7047000080B582B04C
:100C580000AF78607B68013BB3F1807F01D301234B
:100C68000FE00A4A7B68013B53600F214FF0FF30C9
:100C7800FFF78EFF054B00229A60044B07221A608B
:100C8800002318460837BD4680BD00BF10E000E0CD
:100C980080B582B000AF78607868FFF729FF00BFA1
:100CA8000837BD4680BD80B586B000AF0346B96041
:100CB8007A60FB7300237B61FFF73EFF78617A68F7
:100CC800B9687869FFF78EFF024697F90F30114629
:100CD8001846FFF75DFF00BF1837BD4680BD80B5D9
:100CE80082B000AF0346FB7197F907301846FFF74B
:100CF80031FF00BF0837BD4680BD80B582B000AF68
:100D080078607868FFF7A2FF034618460837BD46A3
:100D180080BD000080B489B000AF786039600023DE
:100D28007B6100233B610023BB610023FB616BE116
:100D38000122FB6902FA03F37B613B681B687A694D
:100D480013403B613A697B699A4240F05A813B689B
:100D58005B68012B0BD03B685B68022B07D03B68B4
:100D68005B68112B03D03B685B68122B30D17B6822
:100D78009B68BB61FB695B00032202FA03F3DB4358
:100D8800BA691340BB613B68DA68FB695B0002FA29
:100D980003F3BA691343BB617B68BA699A607B68DD
:100DA8005B68BB610122FB6902FA03F3DB43BA69A2
:100DB8001340BB613B685B681B0903F00102FB69D8
:100DC80002FA03F3BA691343BB617B68BA695A60D4
:100DD8007B68DB68BB61FB695B00032202FA03F3F3
:100DE800DB43BA691340BB613B689A68FB695B00E7
:100DF80002FA03F3BA691343BB617B68BA69DA6024
:100E08003B685B68022B03D03B685B68122B23D1DD
:100E1800FB69DA087B68083253F82230BB61FB694A
:100E280003F007039B000F2202FA03F3DB43BA69BE
:100E38001340BB613B681A69FB6903F007039B0019
:100E480002FA03F3BA691343BB61FB69DA087B68EA
:100E58000832B96943F822107B681B68BB61FB69DB
:100E68005B00032202FA03F3DB43BA691340BB6158
:100E78003B685B6803F00302FB695B0002FA03F35B
:100E8800BA691343BB617B68BA691A603B685B68DF
:100E980003F08053002B00F0B4800023FB605F4B0D
:100EA8005B6C5E4A43F4804353645C4B5B6C03F4B5
:100EB8008043FB60FB685A4AFB699B08023352F87F
:100EC8002330BB61FB6903F003039B000F2202FA86
:100ED80003F3DB43BA691340BB617B68514A934211
:100EE8002BD07B68504A934225D07B684F4A934267
:100EF8001FD07B684E4A934219D07B684D4A934273
:100F080013D07B684C4A93420DD07B684B4A93427E
:100F180007D07B684A4A934201D107230EE0082391
:100F28000CE006230AE0052308E0042306E0032377
:100F380004E0022302E0012300E00023FA6902F042
:100F4800030292009340BA691343BB613449FB69B9
:100F58009B080233BA6941F823203A4B1B68BB61EE
:100F68003B69DB43BA691340BB613B685B6803F4C8
:100F78008033002B03D0BA693B691343BB61314A04
:100F8800BB6913602F4B5B68BB613B69DB43BA6984
:100F98001340BB613B685B6803F40033002B03D04C
:100FA800BA693B691343BB61264ABB695360254B49
:100FB8009B68BB613B69DB43BA691340BB613B6813
:100FC8005B6803F48013002B03D0BA693B691343B1
:100FD800BB611C4ABB6993601A4BDB68BB613B6908
:100FE800DB43BA691340BB613B685B6803F40013D9
:100FF800002B03D0BA693B691343BB61114ABB6933
:10100800D360FB690133FB61FB690F2B7FF690AE60
:1010180000BF2437BD465DF8047B704700380240A6
:10102800003801400000024000040240000802406D
:10103800000C024000100240001402400018024058
:10104800001C0240003C014080B483B000AF7860CF
:101058000B467B8013467B707B78002B03D07A8805
:101068007B689A6103E07B881A047B689A6100BFF9
:101078000C37BD465DF8047B704780B483B000AF81
:1010880078600B467B807B685A697B881A407B882E
:101098009A4204D17B881A047B689A6102E07A88B4
:1010A8007B689A6100BF0C37BD465DF8047B7047CA
:1010B800F0B58FB00AAF78607B68002B01D10123AF
:1010C8000FE17B681B68BB607B6893F8BD33DBB2BC
:1010D800002B06D17B68002283F8BC23786805F0D2
:1010E800BBFA7B68032283F8BD23BB68DB6B03F480
:1010F8008073002B02D17B6800221A617B681B6811
:10110800184602F09AFA7B681B683B607E686D4659
:1011180006F110040FCC0FC50FCC0FC594E80300DF
:1011280085E80300331D0ECB386802F071F90346D9
:10113800002B05D07B68022283F8BD230123D0E071
:101148007B681B680021184602F088FA0023FB73AD
:101158004AE0FA7B79681346DB009B1A9B000B4434
:101168003D3301221A70FA7B79681346DB009B1A1B
:101178009B000B443C33FA7B1A70FA7BFB7B98B2DA
:1011880079681346DB009B1A9B000B4442330246E6
:101198001A80FA7B79681346DB009B1A9B000B4484
:1011A8003F3300221A70FA7B79681346DB009B1ADA
:1011B8009B000B44443300221A60FA7B796813467B
:1011C800DB009B1A9B000B44483300221A60FA7B11
:1011D80079681346DB009B1A9B000B4450330022AE
:1011E8001A60FB7B0133FB73FA7B7B685B689A426E
:1011F800AFD30023FB7344E0FA7B79681346DB0026
:101208009B1A9B000B4403F2FD1300221A70FA7B11
:1012180079681346DB009B1A9B000B4403F5FE73A9
:10122800FA7B1A70FA7B79681346DB009B1A9B00DD
:101238000B4403F2FF1300221A70FA7B79681346F5
:10124800DB009B1A9B000B4403F5017300221A6014
:10125800FA7B79681346DB009B1A9B000B4403F565
:10126800027300221A60FA7B79681346DB009B1A26
:101278009B000B4403F5047300221A60FB7B0133C7
:10128800FB73FA7B7B685B689A42B5D37B681B6803
:101298003B607E686D4606F110040FCC0FC50FCC7D
:1012A8000FC594E8030085E80300331D0ECB3868AA
:1012B80002F0FEF90346002B05D07B68022283F872
:1012C800BD2301230DE07B68002283F838207B686A
:1012D800012283F8BD237B681B68184603F03DFA9A
:1012E800002318461437BD46F0BD80B584B000AF62
:1012F80078607B681B68FB607B6893F8BC33012BC4
:1013080001D1022320E07B68012283F8BC237B689B
:101318009B6A012B09D17B689B69012B05D0FB686F
:101328009B6B43F48032FB689A637B681B681846A2
:1013380003F0FBF97B681B68184602F06DF97B68BF
:10134800002283F8BC23002318461037BD4680BD11
:1013580090B58DB000AF78607B681B683B623B6AD4
:10136800FB617B681B68184603F0A2FA0346002B52
:1013780040F09D837B681B68184603F006FA034615
:10138800002B00F093837B681B68184603F0FDF977
:10139800034603F00203022B07D17B681B685A69D6
:1013A8007B681B6802F002025A617B681B6818465A
:1013B80003F0EBF9034603F01003102B61D17B68AF
:1013C8001B689A697B681B6822F010029A613B6A65
:1013D8001B6ABB61BB6903F00F021346DB009B1A53
:1013E8009B0003F5FC737A68134404337B61BB6983
:1013F8005B0C03F00F03022B24D1BA6947F6F07394
:101408001340002B35D07B69D968BB691B099BB297
:10141800C3F30A039BB21A46386A03F063F87B6980
:10142800DA68BB691B09C3F30A031A447B69DA60EB
:101438007B699A69BB691B09C3F30A031A447B6970
:101448009A6116E0BB695B0C03F00F03062B10D101
:101458007B6803F5717308221946386A03F042F86D
:101468007B699A69BB691B09C3F30A031A447B6940
:101478009A617B681B689A697B681B6842F0100256
:101488009A617B681B68184603F07FF9034603F4EA
:101498000023B3F5002F6ED100237B627B681B68A5
:1014A800184603F085F9B86262E0BB6A03F00103ED
:1014B800002B57D07B681B687A6AD2B2114618464F
:1014C80003F0AAF938613B6903F00103002B0CD043
:1014D8007B6A5A01FB69134403F530631A460123FA
:1014E8009360796A786800F0B1FD3B6903F00803FE
:1014F800002B0CD07B6A5A01FB69134403F5306357
:101508001A4608239360796A786800F0ABFE3B6955
:1015180003F01003002B08D07B6A5A01FB691344BF
:1015280003F530631A46102393603B6903F02003E8
:10153800002B08D07B6A5A01FB69134403F530631A
:101548001A46202393603B6903F40053002B09D00B
:101558007B6A5A01FB69134403F530631A464FF45A
:10156800005393607B6A01337B62BB6A5B08BB6292
:10157800BB6A002B99D17B681B68184603F005F9F4
:10158800034603F48023B3F5802F40F0C0807B68C6
:101598001B68184603F026F9B86200237B62B2E0A4
:1015A800BB6A03F00103002B00F0A7807B681B686F
:1015B8007A6AD2B21146184603F04CF938613B6991
:1015C80003F00103002B57D07B6A03F00F030122BD
:1015D80002FA03F3FB60FB6903F500635A6BFB68CF
:1015E800DB43F96901F5006113404B637B6A5A01DB
:1015F800FB69134403F510631A46012393607B6863
:101608001B69012B32D179687A6A1346DB009B1A71
:101618009B000B444833196878687A6A1346DB00E4
:101628009B1A9B00034444331B68194478687A6A00
:101638001346DB009B1A9B000344483319607B6AFE
:10164800002B13D179687A6A1346DB009B1A9B003A
:101658000B4450331B68002B08D17B6818687B68E3
:1016680003F571731A46012103F054F97B6ADBB262
:101678001946786805F071F83B6903F00803002BF8
:1016880008D07B6A5A01FB69134403F510631A46B4
:10169800082393603B6903F01003002B08D07B6A92
:1016A8005A01FB69134403F510631A46102393602B
:1016B8003B6903F04003002B08D07B6A5A01FB69A1
:1016C800134403F510631A46402393603B6903F003
:1016D8000203002B08D07B6A5A01FB69134403F507
:1016E80010631A46022393603B6903F08003002BC2
:1016F80003D0796A786800F01BFC7B6A01337B624F
:10170800BB6A5B08BB62BB6A002B7FF449AF7B688E
:101718001B68184603F039F8034603F00043B3F199
:10172800004F22D1FB6903F500635B68FA6902F593
:10173800006223F0010353607B6893F8F433012BB4
:1017480008D17B68002283F8F4230021786800F030
:1017580027FE02E0786805F077F87B681B685A690D
:101768007B681B6802F000425A617B681B68184658
:1017780003F00BF8034603F40063B3F5006F12D1CE
:10178800FB6903F500639B6803F00103012B02D199
:10179800786805F033F87B681B685A697B681B68B2
:1017A80002F400625A617B681B68184602F0EDFF7C
:1017B800034603F48053B3F5805F40F0C780FB69AC
:1017C80003F500635B68FA6902F5006223F0010320
:1017D80053607B681B681021184602F0CDF800237F
:1017E800FB6256E0FB6A5A01FB69134403F5106378
:1017F8001A464FF67F339360FB6A5A01FB6913441C
:1018080003F510631B68FA6A5101FA690A4402F584
:10181800106223F400131360FB6A5A01FB69134436
:1018280003F510631B68FA6A5101FA690A4402F564
:10183800106243F000631360FB6A5A01FB691344AA
:1018480003F530631A464FF67F339360FB6A5A01FB
:10185800FB69134403F530631B68FA6A5101FA699E
:101868000A4402F5306223F400131360FB6A5A013C
:10187800FB69134403F530631B68FA6A5101FA697E
:101888000A4402F5306243F000631360FB6A0133D7
:10189800FB627B685B68FA6A9A42A3D3FB6903F52B
:1018A8000063DB69FA6902F5006243F00113D36152
:1018B8007B681B6B002B16D0FB6903F50063D3F81C
:1018C8008430FA6902F5006243F00B03C2F88430F1
:1018D800FB6903F500635B6CFA6902F5006243F08B
:1018E8000B03536415E0FB6903F500635B69FA6950
:1018F80002F5006243F4005343F02B035361FB6984
:1019080003F500631B69FA6902F5006243F00B03F3
:101918001361FB6903F500631B68FA6902F500624D
:1019280023F4FE6313607B6818687B681B69D9B26F
:101938007B6803F571731A4602F0ECFF7B681B683D
:101948005A697B681B6802F480525A617B681B687D
:10195800184602F01AFF034603F40053B3F5005F7C
:1019680024D17B681B68184602F0B0FF7B681B68AF
:10197800184602F062F803461A467B68DA607B680C
:101988001C6801F047F901467B68DB68DBB21A4640
:10199800204601F09FFD786804F007FF7B681B680C
:1019A8005A697B681B6802F400525A617B681B689D
:1019B800184602F0EAFE034603F00803082B0AD192
:1019C800786804F0E4FE7B681B685A697B681B68CA
:1019D80002F008025A617B681B68184602F0D5FEBF
:1019E800034603F48013B3F5801F0FD100237B62F5
:1019F8007B6ADBB21946786804F046FF7B681B688F
:101A08005A697B681B6802F480125A617B681B68FC
:101A1800184602F0BAFE034603F40013B3F5001F9C
:101A28000FD100237B627B6ADBB21946786804F029
:101A380019FF7B681B685A697B681B6802F40012EF
:101A48005A617B681B68184602F09FFE034603F044
:101A58008043B3F1804F0AD1786804F027FF7B6890
:101A68001B685A697B681B6802F080425A617B6870
:101A78001B68184602F089FE034603F00403042B92
:101A880015D17B681B685B68BB61BB6903F0040305
:101A9800002B02D0786804F017FF7B681B68596830
:101AA8007B681B68BA690A435A6000E000BF343794
:101AB800BD4690BD80B582B000AF78600B46FB7024
:101AC8007B6893F8BC33012B01D1022313E07B68B8
:101AD800012283F8BC237B68FA7883F838207B6876
:101AE8001B68FA781146184602F0F9FD7B68002257
:101AF80083F8BC23002318460837BD4680BD80B54F
:101B080084B000AF7860084611461A460346FB7059
:101B18000B463B801346BB700023FB7297F90330DA
:101B2800002B0FDAFB7803F00F021346DB009B1A39
:101B38009B0038337A6813440433FB60FB68012246
:101B48005A700FE0FB7803F00F021346DB009B1A74
:101B58009B0003F5FC737A6813440433FB60FB684D
:101B680000225A70FB7803F00F03DAB2FB681A7090
:101B78003A88FB689A60FB68BA78DA70FB685B7829
:101B8800002B04D0FB681B789AB2FB68DA80BB781C
:101B9800022B02D1FB6800221A717B6893F8BC33D0
:101BA800012B01D102230EE07B68012283F8BC23BC
:101BB8007B681B68F968184601F064FF7B6800229F
:101BC80083F8BC23FB7A18461037BD4680BD80B524
:101BD80084B000AF78600B46FB7097F90330002B98
:101BE8000FDAFB7803F00F021346DB009B1A9B0009
:101BF80038337A6813440433FB60FB6801225A7057
:101C08000FE0FB7803F00F021346DB009B1A9B00E2
:101C180003F5FC737A6813440433FB60FB68002205
:101C28005A70FB7803F00F03DAB2FB681A707B680E
:101C380093F8BC33012B01D102230EE07B6801220B
:101C480083F8BC237B681B68F968184601F0A2FF7B
:101C58007B68002283F8BC23002318461037BD4652
:101C680080BD80B586B000AFF8607A603B600B46F7
:101C7800FB72FB7A03F00F021346DB009B1A9B00F2
:101C880003F5FC73FA68134404337B617B697A6853
:101C9800DA607B693A685A617B6900229A617B69DC
:101CA80000225A70FB7A03F00F03DAB27B691A70CC
:101CB800FB681B69012B02D17A687B691A61FB7A80
:101CC80003F00F03002B09D1FB681868FB681B6938
:101CD800DBB21A46796902F07DFA08E0FB681868F9
:101CE800FB681B69DBB21A46796902F02FF80023FA
:101CF80018461837BD4680BD80B483B000AF786001
:101D08000B46FB70FB7803F00F0279681346DB0083
:101D18009B1A9B000B4403F505731B6818460C3788
:101D2800BD465DF8047B704780B586B000AFF860AB
:101D38007A603B600B46FB72FB7A03F00F02134696
:101D4800DB009B1A9B003833FA68134404337B6129
:101D58007B697A68DA607B693A685A617B69002234
:101D68009A617B6901225A70FB7A03F00F03DAB299
:101D78007B691A70FB681B69012B02D17A687B6941
:101D88001A61FB7A03F00F03002B09D1FB6818686E
:101D9800FB681B69DBB21A46796902F01BFA08E096
:101DA800FB681868FB681B69DBB21A46796901F0A1
:101DB800CDFF002318461837BD4680BD80B584B0D6
:101DC80000AF78600B46FB70FB7803F00F027B686E
:101DD8005B689A4201D9012350E097F90330002B40
:101DE8000FDAFB7803F00F021346DB009B1A9B0007
:101DF80038337A6813440433FB60FB6801225A7055
:101E08000DE0FA781346DB009B1A9B0003F5FC7380
:101E18007A6813440433FB60FB6800225A70FB683D
:101E280001229A70FB7803F00F03DAB2FB681A708C
:101E38007B6893F8BC33012B01D102231EE07B6839
:101E4800012283F8BC237B681B68F968184602F0F6
:101E580072FBFB7803F00F03002B0AD17B6818682C
:101E68007B681B69D9B27B6803F571731A4602F067
:101E780051FD7B68002283F8BC23002318461037E5
:101E8800BD4680BD80B584B000AF78600B46FB705E
:101E9800FB7803F00F027B685B689A4201D9012343
:101EA80042E097F90330002B0FDAFB7803F00F02BA
:101EB8001346DB009B1A9B0038337A6813440433BB
:101EC800FB60FB6801225A700FE0FB7803F00F02F9
:101ED8001346DB009B1A9B0003F5FC737A681344D6
:101EE8000433FB60FB6800225A70FB6800229A707A
:101EF800FB7803F00F03DAB2FB681A707B6893F87B
:101F0800BC33012B01D102230EE07B68012283F848
:101F1800BC237B681B68F968184602F07AFB7B686B
:101F2800002283F8BC23002318461037BD4680BD25
:101F380080B58AB002AF786039607B681B687B61C6
:101F48007B693B613A681346DB009B1A9B00383378
:101F58007A6813440433FB60FB689A69FB685B6921
:101F68009A4201D901236CE0FB685A69FB689B69B6
:101F7800D31AFB61FB689B68FA699A4202D9FB682D
:101F88009B68FB61FB6903339B08BB612BE0FB6823
:101F98005A69FB689B69D31AFB61FB689B68FA69FD
:101FA8009A4202D9FB689B68FB61FB6903339B0873
:101FB800BB61FB68D9683B68DAB2FB6998B27B6899
:101FC8001B69DBB200930346786902F056FAFB6896
:101FD800DA68FB691A44FB68DA60FB689A69FB698E
:101FE8001A44FB689A613B685A013B69134403F53C
:101FF80010639B699BB2BA699A4209D8FB689A69CF
:10200800FB685B699A4203D2FB685B69002BBED10F
:10201800FB685A69FB689B699A4211D83B6803F0D0
:102028000F03012202FA03F3BB603B6903F5006367
:102038005A6BBB68DB43396901F5006113404B6398
:10204800002318462037BD4680BD000080B586B005
:1020580000AF786039607B681B687B617B693B6196
:102068007B693C3304331B68FB603B685A013B695E
:10207800134403F530639B68BB607B681B69012BC5
:1020880040F0A080BB6803F00803002B15D0FB6864
:10209800724A934240F2DD80BB6803F40043002B90
:1020A80000F0D7803B685A013B69134403F530635D
:1020B8001A464FF400439360CBE0BB6803F020035B
:1020C800002B09D03B685A013B69134403F5306380
:1020D8001A4620239360BCE0BB6803F02803002B5A
:1020E80040F0B780FB685D4A93420FD9BB6803F4A0
:1020F8000043002B0AD03B685A013B69134403F59F
:1021080030631A464FF400439360A2E079683A6856
:102118001346DB009B1A9B000B4403F501731A68F6
:102128003B6859013B690B4403F530631B69C3F3F2
:102138001203D11A78683A681346DB009B1A9B0091
:10214800034403F50573196079683A681346DB00A0
:102158009B1A9B000B4403F50273196878683A6868
:102168001346DB009B1A9B00034403F501731B68AD
:10217800194478683A681346DB009B1A9B000344AD
:1021880003F5027319603B68002B14D179683A682B
:102198001346DB009B1A9B000B4403F504731B6872
:1021A800002B08D17B6818687B6803F571731A46A1
:1021B800012102F0AFFB3B68DBB21946786804F0F6
:1021C800B1FA46E0FB68264A934224D1BB6803F47F
:1021D8000043002B0AD03B685A013B69134403F5BE
:1021E80030631A464FF40043936032E0BB6803F053
:1021F8002003002B08D03B685A013B69134403F5C0
:1022080030631A46202393603B68DBB2194678682E
:1022180004F088FA1DE03B68002B14D179683A680D
:102228001346DB009B1A9B000B4403F504731B68E1
:10223800002B08D17B6818687B6803F571731A4610
:10224800002102F067FB3B68DBB21946786804F0AE
:1022580069FA002318461837BD4680BD0A30544F26
:102268000A31544F80B586B000AF786039607B681A
:102278001B687B617B693B617B693C3304331B686A
:10228800FB603B685A013B69134403F530639B6864
:10229800BB60FB68154A93420ED9BB6803F4004340
:1022A800002B09D03B685A013B69134403F530639E
:1022B8001A464FF400439360786804F021FAFB68EB
:1022C8000A4A93420CD97B681B69012B08D17B68A9
:1022D80018687B6803F571731A46012102F01AFB2E
:1022E800002318461837BD4680BD00BF0A30544F3A
:1022F80080B485B000AF78600B46FB7013463B8016
:102308007B681B685B6ABB60FB78002B07D13B8846
:1023180019047B681B68BA680A439A6228E07B68DC
:102328001B689B6A1B0CBA681344BB600023FB73D1
:102338000DE07B681A68FB7B40339B0013445B68A5
:102348001B0CBA681344BB60FB7B0133FB73FA7B3D
:10235800FB78013B9A42ECD33B8818047B681968E8
:10236800FB78013BBA68024340339B000B445A6038
:10237800002318461437BD465DF8047B704780B4C7
:1023880083B000AF78600B467B807B681B687A88D7
:102398005A62002318460C37BD465DF8047B704727
:1023A80080B483B000AF78600B46FB7000BF0C3779
:1023B800BD465DF8047B704780B586B000AF786095
:1023C8007B68002B01D101235BE27B681B6803F06B
:1023D8000103002B75D0A34B9B6803F00C03042B5F
:1023E8000CD0A04B9B6803F00C03082B12D19D4B1B
:1023F8005B6803F48003B3F5800F0BD1994B1B681E
:1024080003F40033002B5BD07B685B68002B57D14B
:10241800012336E27B685B68B3F5803F06D1914BB8
:102428001B68904A43F4803313601DE07B685B6847
:10243800B3F5A02F0CD18B4B1B688A4A43F4802339
:102448001360884B1B68874A43F4803313600BE0A2
:10245800844B1B68834A23F480331360814B1B68C9
:10246800804A23F4802313607B685B68002B13D0B9
:10247800FEF710FB386108E0FEF70CFB02463B69EB
:10248800D31A642B01D90323FBE1764B1B6803F4B1
:102498000033002BF0D014E0FEF7FCFA386108E0B6
:1024A800FEF7F8FA02463B69D31A642B01D90323D5
:1024B800E7E16C4B1B6803F40033002BF0D100E01C
:1024C80000BF7B681B6803F00203002B63D0654BD9
:1024D8009B6803F00C03002B0BD0624B9B6803F046
:1024E8000C03082B1CD15F4B5B6803F48003002BA3
:1024F80016D15C4B1B6803F00203002B05D07B68E8
:10250800DB68012B01D00123BBE1564B1B6823F08C
:10251800F8027B681B69DB00524913430B603AE001
:102528007B68DB68002B20D04F4B01221A60FEF736
:10253800B1FA386108E0FEF7ADFA02463B69D31AF2
:10254800022B01D903239CE1464B1B6803F00203CD
:10255800002BF0D0434B1B6823F0F8027B681B6903
:10256800DB00404913430B6015E03F4B00221A6023
:10257800FEF790FA386108E0FEF78CFA02463B69EC
:10258800D31A022B01D903237BE1364B1B6803F0D6
:102598000203002BF0D17B681B6803F00803002BB3
:1025A80030D07B685B69002B16D0304B01221A6053
:1025B800FEF770FA386108E0FEF76CFA02463B69EC
:1025C800D31A022B01D903235BE1264B5B6F03F07F
:1025D8000203002BF0D015E0244B00221A60FEF70E
:1025E80059FA386108E0FEF755FA02463B69D31AF2
:1025F800022B01D9032344E11A4B5B6F03F002035A
:10260800002BF0D17B681B6803F00403002B00F05B
:10261800A0800023FB75134B1B6C03F08053002B29
:102628000FD10023BB600F4B1B6C0E4A43F0805345
:1026380013640C4B1B6C03F08053BB60BB68012315
:10264800FB750B4B1B6803F48073002B21D1084BDF
:102658001B68074A43F480731360FEF71BFA38615E
:1026680011E000BF0038024000004742800E474298
:1026780000700040FEF70EFA02463B69D31A022B9F
:1026880001D90323FDE0814B1B6803F48073002B01
:10269800F0D07B689B68012B06D17D4B1B6F7C4A71
:1026A80043F0010313671CE07B689B68052B0CD182
:1026B800774B1B6F764A43F004031367744B1B6F09
:1026C800734A43F0010313670BE0714B1B6F704AA9
:1026D80023F0010313676E4B1B6F6D4A23F004034D
:1026E80013677B689B68002B15D0FEF7D3F9386118
:1026F8000AE0FEF7CFF902463B69D31A41F2883265
:10270800934201D90323BCE0614B1B6F03F0020322
:10271800002BEED014E0FEF7BDF938610AE0FEF7B1
:10272800B9F902463B69D31A41F28832934201D97A
:102738000323A6E0564B1B6F03F00203002BEED1D8
:10274800FB7D012B05D1524B1B6C514A23F0805362
:1027580013647B689B69002B00F092804C4B9B684C
:1027680003F00C03082B5CD07B689B69022B41D1DA
:10277800484B00221A60FEF78DF9386108E0FEF731
:1027880089F902463B69D31A022B01D9032378E061
:102798003F4B1B6803F00073002BF0D17B68DA69AC
:1027A8007B681B6A1A437B685B6A9B011A437B68D8
:1027B8009B6A5B08013B1B041A437B68DB6A1B06A8
:1027C800334913434B60334B01221A60FEF762F919
:1027D800386108E0FEF75EF902463B69D31A022B1E
:1027E80001D903234DE02A4B1B6803F00073002B2B
:1027F800F0D045E0274B00221A60FEF74BF938610C
:1028080008E0FEF747F902463B69D31A022B01D9C3
:10281800032336E01E4B1B6803F00073002BF0D136
:102828002EE07B689B69012B01D1012329E0184B1D
:102838005B68FB60FB6803F480027B68DB699A4293
:102848001CD1FB6803F03F027B681B6A9A4215D1D2
:10285800FA6847F6C07313407A68526A93420DD1FA
:10286800FB6803F440327B689B6A9A4206D1FB6896
:1028780003F070627B68DB6A9A4201D0012300E0B2
:10288800002318461837BD4680BD00BF00700040C1
:10289800003802406000474280B584B000AF7860DD
:1028A80039607B68002B01D10123CCE0684B1B68A1
:1028B80003F00F033A689A420CD9654B3A68D2B2D2
:1028C8001A70634B1B6803F00F033A689A4201D0F1
:1028D8000123B8E07B681B6803F00203002B20D0BB
:1028E8007B681B6803F00403002B05D0594B9B68D9
:1028F800584A43F4E05393607B681B6803F008036D
:10290800002B05D0534B9B68524A43F460439360B5
:10291800504B9B6823F0F0027B689B684D4913433A
:102928008B607B681B6803F00103002B44D07B6835
:102938005B68012B07D1474B1B6803F40033002B5E
:1029480019D101237FE07B685B68022B03D07B6889
:102958005B68032B07D13F4B1B6803F00073002B08
:1029680009D101236FE03B4B1B6803F00203002BE6
:1029780001D1012367E0374B9B6823F003027B6892
:102988005B68344913438B60FEF784F8F8600AE00B
:10299800FEF780F80246FB68D31A41F28832934268
:1029A80001D903234FE02B4B9B6803F00C027B6893
:1029B8005B689B009A42EBD1254B1B6803F00F0321
:1029C8003A689A420CD2224B3A68D2B21A70204B1B
:1029D8001B6803F00F033A689A4201D0012332E0E2
:1029E8007B681B6803F00403002B08D0194B9B6815
:1029F80023F4E0527B68DB68164913438B607B68DD
:102A08001B6803F00803002B09D0124B9B6823F4C2
:102A180060427B681B69DB000E4913438B6000F042
:102A280021F801460B4B9B681B0903F00F030A4A68
:102A3800D35C21FA03F3094A1360094B1B68184653
:102A4800FDF7E4FF002318461037BD4680BD00BFE0
:102A5800003C024000380240C46E0008000000201C
:102A680004000020F0B585B000AF00237B60002390
:102A7800FB6000233B600023BB60634B9B6803F053
:102A88000C03042B07D0082B08D0002B40F0B4808F
:102A98005E4BBB60B3E05E4BBB60B0E05A4B5B681B
:102AA80003F03F037B60584B5B6803F48003002B03
:102AB8004AD0554B5B689B094FF0000440F2FF1168
:102AC8004FF0000203EA010504EA020629463246ED
:102AD8004FF000034FF00004540144EAD1644B0165
:102AE80019462246491B62EB06024FF000034FF0DD
:102AF8000004940144EA91648B015B1A64EB0204BC
:102B08004FF000014FF00002E20042EA5372D90090
:102B18000B4614465B1944EB06044FF000014FF0D6
:102B28000002620242EAD35259020B461446184682
:102B380021467B684FF000041A462346FDF748FB00
:102B480003460C46FB6049E02F4B5B689B094FF03E
:102B5800000440F2FF114FF0000203EA010504EA05
:102B68000206294632464FF000034FF00004540194
:102B780044EAD1644B0119462246491B62EB06021E
:102B88004FF000034FF00004940144EA91648B0174
:102B98005B1A64EB02044FF000014FF00002E20000
:102BA80042EA5372D9000B4614465B1944EB0604FB
:102BB8004FF000014FF00002A20242EA935299023C
:102BC8000B461446184621467B684FF000041A4607
:102BD8002346FDF7FDFA03460C46FB600A4B5B688B
:102BE8001B0C03F0030301335B003B60FA683B688E
:102BF800B2FBF3F3BB6002E0044BBB6000BFBB68F1
:102C080018461437BD46F0BD003802400024F400D1
:102C180000127A0080B400AF034B1B681846BD460B
:102C28005DF8047B704700BF0000002080B500AF4E
:102C3800FFF7F0FF0146054B9B689B0A03F007036B
:102C4800034AD35C21FA03F3184680BD00380240DA
:102C5800D46E000880B500AFFFF7DCFF0146054BD6
:102C68009B685B0B03F00703034AD35C21FA03F369
:102C7800184680BD00380240D46E000880B582B086
:102C880000AF78607B68002B01D101233FE07B68AF
:102C980093F83930DBB2002B06D17B68002283F829
:102CA80038207868FDF784FD7B68242283F8392072
:102CB8007B681B68DA687B681B6822F40052DA605C
:102CC800786800F029F87B681B681A697B681B68BC
:102CD80022F490421A617B681B685A697B681B68FA
:102CE80022F02A025A617B681B68DA687B681B68D5
:102CF80042F40052DA607B680022DA637B682022A3
:102D080083F839207B68202283F83A20002318466C
:102D18000837BD4680BD00002DE9F04F85B000AFF3
:102D280078607B681B681B6923F440517B68DA680C
:102D38007B681B680A431A617B689A687B681B6911
:102D48001A437B685B691A437B68DB691343FB6042
:102D58007B681B68DB6823F4164323F00C037A684E
:102D68001268F9680B43D3607B681B685B6923F4BE
:102D780040717B689A697B681B680A435A617B6863
:102D8800DB69B3F5004F40F08B817B681B68C14A53
:102D9800934205D07B681B68BF4A934240F0BD80D0
:102DA800FFF758FFB860BB681D464FF00006A846FD
:102DB800B14618EB080349EB09049846A14618EBFD
:102DC800050849EB06094FF000014FF000024FEAF1
:102DD800C90242EA58724FEAC8018846914618EB80
:102DE800050049EB06017B685B681D464FF000064D
:102DF8006B1946EB06041A462346FDF7E9F9034624
:102E08000C461A46A54BA3FB02235B094FEA03189D
:102E1800BB681D464FF00006A946B24619EB0903E8
:102E28004AEB0A049946A24619EB05094AEB060A39
:102E38004FF000014FF000024FEACA0242EA59720D
:102E48004FEAC9018946924619EB05004AEB06018B
:102E58007B685B681D464FF000066B1946EB06045D
:102E68001A462346FDF7B4F903460C461A468B4B1F
:102E7800A3FB02135B09642101FB03F3D31ADB00F4
:102E88003233864AA2FB03235B095B0003F4F87321
:102E98009844BB681D464FF00006A946B24619EB98
:102EA80009034AEB0A049946A24619EB05094AEBBD
:102EB800060A4FF000014FF000024FEACA0242EA48
:102EC80059724FEAC9018946924619EB05004AEB47
:102ED80006017B685B681D464FF000066B1946EBE0
:102EE80006041A462346FDF773F903460C461A46AC
:102EF8006A4BA3FB02135B09642101FB03F3D31A9A
:102F0800DB003233654AA2FB03235B0903F00702A7
:102F18007B681B6842449A606FE2FFF787FEB860DF
:102F2800BB681D464FF00006A846B14618EB0803DB
:102F380049EB09049846A14618EB050849EB060930
:102F48004FF000014FF000024FEAC90242EA5872FE
:102F58004FEAC8018846914618EB050049EB06017F
:102F68007B685B681D464FF000066B1946EB06044C
:102F78001A462346FDF72CF903460C461A46474BDA
:102F8800A3FB02235B094FEA0318BB681D464FF0F9
:102F98000006A946B24619EB09034AEB0A0499460A
:102FA800A24619EB05094AEB060A4FF000014FF05B
:102FB80000024FEACA0242EA59724FEAC901894639
:102FC800924619EB05004AEB06017B685B681D46D3
:102FD8004FF000066B1946EB06041A462346FDF728
:102FE800F7F803460C461A462C4BA3FB02135B0961
:102FF800642101FB03F3D31ADB003233274AA2FB17
:1030080003235B095B0003F4F8739844BB681D460F
:103018004FF00006A946B24619EB09034AEB0A0429
:103028009946A24619EB05094AEB060A4FF000013A
:103038004FF000024FEACA0242EA59724FEAC90148
:103048008946924619EB05004AEB06017B685B68E6
:103058001D464FF000066B1946EB06041A46234638
:10306800FDF7B6F803460C461A460C4BA3FB0213B1
:103078005B09642101FB03F3D31ADB003233074AEF
:10308800A2FB03235B0903F007027B681B68424429
:103098009A60B2E100100140001401401F85EB5115
:1030A8007B681B68D74A934205D07B681B68D64A61
:1030B800934240F0D180FFF7CDFDB860BB689A46D7
:1030C8004FF0000BD046D94618EB080349EB09042A
:1030D8009846A14618EB0A0849EB0B094FF0000186
:1030E8004FF000024FEAC90242EA58724FEAC8019B
:1030F800884691461AEB08054BEB09067B685B6826
:1031080019464FF000024FF000034FF000049400FE
:1031180044EA91748B001A46234628463146FDF747
:1031280057F803460C461A46B84BA3FB02235B0923
:103138004FEA0318BB689B464FF0000CD946E2469D
:1031480019EB09034AEB0A049946A24619EB0B0945
:103158004AEB0C0A4FF000014FF000024FEACA0296
:1031680042EA59724FEAC901894692461BEB0905A2
:103178004CEB0A067B685B6819464FF000024FF07B
:1031880000034FF00004940044EA91748B001A463F
:10319800234628463146FDF71BF803460C461A46D7
:1031A8009A4BA3FB02135B09642101FB03F3D31AB7
:1031B8001B013233954AA2FB03235B0903F0F0039A
:1031C8009844BB689B464FF0000CD946E24619EB81
:1031D80009034AEB0A049946A24619EB0B094AEB84
:1031E8000C0A4FF000014FF000024FEACA0242EA0F
:1031F80059724FEAC901894692461BEB09054CEB07
:103208000A067B685B6819464FF000024FF000031E
:103218004FF00004940044EA91748B001A46234648
:1032280028463146FCF7D4FF03460C461A46774B2E
:10323800A3FB02135B09642101FB03F3D31A1B01EF
:103248003233724AA2FB03235B0903F00F027B6847
:103258001B6842449A60D0E0FFF7E8FCB860BB689E
:103268009A464FF0000BD046D94618EB080349EBB5
:1032780009049846A14618EB0A0849EB0B094FF0D8
:1032880000014FF000024FEAC90242EA58724FEAC1
:10329800C801884691461AEB08054BEB09067B687E
:1032A8005B6819464FF000024FF000034FF000042E
:1032B800940044EA91748B001A4623462846314606
:1032C800FCF786FF03460C461A46504BA3FB022325
:1032D8005B094FEA0318BB689B464FF0000CD946C0
:1032E800E24619EB09034AEB0A049946A24619EB90
:1032F8000B094AEB0C0A4FF000014FF000024FEAAD
:10330800CA0242EA59724FEAC901894692461BEB42
:1033180009054CEB0A067B685B6819464FF000020A
:103328004FF000034FF00004940044EA91748B00BE
:103338001A46234628463146FCF74AFF03460C4600
:103348001A46324BA3FB02135B09642101FB03F30A
:10335800D31A1B0132332D4AA2FB03235B0903F066
:10336800F0039844BB689B464FF0000CD946E246F0
:1033780019EB09034AEB0A049946A24619EB0B0913
:103388004AEB0C0A4FF000014FF000024FEACA0264
:1033980042EA59724FEAC901894692461BEB090570
:1033A8004CEB0A067B685B6819464FF000024FF049
:1033B80000034FF00004940044EA91748B001A460D
:1033C800234628463146FCF703FF03460C461A46B7
:1033D8000E4BA3FB02135B09642101FB03F3D31A11
:1033E8001B013233094AA2FB03235B0903F00F02D6
:1033F8007B681B6842449A60FFE700BF1437BD46EC
:10340800BDE8F08F00100140001401401F85EB510A
:1034180084B080B584B000AF786007F11C0080E804
:103428000E003B6B012B22D17B689B6B23F480320F
:103438007B689A637B68DB6823F4840323F040038A
:103448007A68D3607B68DB6823F440127B68DA60B3
:10345800FB6C012B05D17B68DB6843F480127B6829
:10346800DA60786801F0B4FA0346FB731AE07B6807
:10347800DB6843F040027B68DA60786801F0A8FAFC
:103488000346FB733B6C002B06D17B689B6B43F4B4
:1034980080327B689A6305E07B689B6B23F48032FB
:1034A8007B689A63BB6A012B0BD17B689B6843F0EE
:1034B80006027B689A607B689B6843F020027B6801
:1034C8009A60FB7B18461037BD46BDE8804004B0C3
:1034D8007047000080B487B000AFF860B960134649
:1034E800FB71FB79022B65D1BB68414A934206D92F
:1034F800BB68404A934202D80F237B6162E0BB68F5
:103508003C4A934206D9BB683B4A934202D80E23F1
:103518007B6157E0BB68384A934206D9BB68374A93
:10352800934202D80D237B614CE0BB68334A934237
:1035380006D9BB68324A934202D80C237B6141E02A
:10354800BB682F4A934206D9BB682E4A934202D8D9
:103558000B237B6136E0BB682A4A934206D9BB68D5
:10356800294A934202D80A237B612BE0BB68264A8A
:10357800934206D9BB68254A934202D809237B6146
:1035880020E0BB68214A934206D9BB68204A93428F
:1035980002D808237B6115E0BB681D4A934206D90F
:1035A800BB681C4A934202D807237B610AE00623C2
:1035B8007B6107E0FB79002B02D109237B6101E0E5
:1035C80009237B61FB68DB6823F47052FB68DA60CF
:1035D800FB68DA687B699B0203F470531A43FB6843
:1035E800DA60002318461C37BD465DF8047B704737
:1035F800BFACD800BFE1E400FF23F4007F730601ED
:103608009F491A01FF2C31013FA44C01FF356E017F
:103618001FABA601FF47E80180B483B000AF786014
:103628007B689B6843F001027B689A600023184618
:103638000C37BD465DF8047B704780B483B000AF9B
:1036480078607B689B6823F001027B689A6000239E
:1036580018460C37BD465DF8047B704780B582B0CC
:1036680000AF78600B46FB707B68DB6823F0C042D4
:103678007B68DA60FB78012B06D17B68DB6843F056
:1036880000527B68DA600BE0FB78002B06D17B6880
:10369800DB6843F080427B68DA6001E0012303E0E5
:1036A8003220FDF703FA002318460837BD4680BDCF
:1036B80084B080B586B000AF786007F1240080E858
:1036C8000E000023FB757B68FB6000233B6109E06B
:1036D8007A683B6940339B00134400225A603B6977
:1036E80001333B613B690E2BF2D9FB6C002B1CD1DB
:1036F800FB6803F500635B68FA6802F5006243F053
:10370800020353607B689B6B43F400127B689A63E7
:103718007B689B6B23F400227B689A637B689B6BB6
:1037280023F480227B689A630BE07B689B6B23F40D
:1037380000127B689A637B689B6B43F400227B686A
:103748009A63FB6803F560631A4600231360FB68FD
:1037580003F500631946FB6803F500631A460B6816
:103768001360BB6B012B0CD1FB6A002B04D1002129
:10377800786800F049F908E00121786800F044F918
:1037880003E00321786800F03FF91021786800F021
:10379800F3F80346002B01D00123FB75786800F08D
:1037A80011F90346002B01D00123FB75FB6803F5D3
:1037B80000631A4600231361FB6803F500631A4689
:1037C80000235361FB6803F500631A460023D361A5
:1037D80000233B6143E03B695A01FB68134403F54E
:1037E80010631B6803F00043B3F1004F18D13B6925
:1037F800002B0AD13B695A01FB68134403F5106397
:103808001A464FF00063136013E03B695A01FB68E6
:10381800134403F510631A464FF09043136008E011
:103828003B695A01FB68134403F510631A460023E9
:1038380013603B695A01FB68134403F510631A4689
:10384800002313613B695A01FB68134403F51063B5
:103858001A464FF67F3393603B6901333B617B6ABD
:103868003A699A42B7D300233B6143E03B695A0166
:10387800FB68134403F530631B6803F00043B3F19E
:10388800004F18D13B69002B0AD13B695A01FB68EC
:10389800134403F530631A464FF00063136013E0D6
:1038A8003B695A01FB68134403F530631A464FF02D
:1038B8009043136008E03B695A01FB68134403F521
:1038C80030631A46002313603B695A01FB681344AE
:1038D80003F530631A46002313613B695A01FB68FC
:1038E800134403F530631A464FF67F3393603B6900
:1038F80001333B617B6A3A699A42B7D3FB6803F5A7
:1039080000631B69FA6802F5006223F4807313618F
:103918007B6800229A617B686FF080425A613B6B3A
:10392800002B05D17B689B6943F010027B689A6184
:103938007B689A690F4B13437A689361FB6B002B82
:1039480005D07B689B6943F008027B689A61FB6C31
:10395800012B07D17B689B6943F0804343F0040344
:103968007A689361FB7D18461837BD46BDE88040EC
:1039780004B0704700383C8080B485B000AF7860F0
:1039880039600023FB603B689B0143F020027B68A1
:103998001A61FB680133FB60FB68094A934201D94D
:1039A800032306E07B681B6903F02003202BF0D07B
:1039B800002318461437BD465DF8047B704700BFE6
:1039C800400D030080B485B000AF78600023FB6031
:1039D8007B6810221A61FB680133FB60FB68094AA7
:1039E800934201D9032306E07B681B6903F01003A7
:1039F800102BF0D0002318461437BD465DF8047B21
:103A0800704700BF400D030080B485B000AF7860F8
:103A18000B46FB707B68FB60FB6803F500631A6864
:103A2800FB78F96801F5006113430B600023184621
:103A38001437BD465DF8047B704780B487B000AF8B
:103A480078607B683B613B6903F500639B6803F022
:103A58000603FB60FB68002B02D10023FB750AE01C
:103A6800FB68022B02D0FB68062B02D10223FB75F0
:103A780001E00F23FB75FB7D18461C37BD465DF83A
:103A8800047B704780B485B000AF786039607B688C
:103A9800FB603B681B78BB603B685B78012B3AD1C5
:103AA800FB6803F50063DA693B681B7803F00F03D2
:103AB800012101FA03F39BB2F96801F50061134390
:103AC800CB61BB685A01FB68134403F510631B689C
:103AD80003F40043002B55D1BB685A01FB6813441B
:103AE80003F510631A683B689B68C3F30A013B68D7
:103AF800DB789B041943BB689B050B431343BA68E7
:103B08005101FA680A4402F5106243F0805343F405
:103B18000043136036E0FB6803F50063DA693B682D
:103B28001B7803F00F03012101FA03F31B04F96862
:103B380001F500611343CB61BB685A01FB6813446C
:103B480003F530631B6803F40043002B1AD1BB68EC
:103B58005A01FB68134403F530631A683B689B6895
:103B6800C3F30A013B68DB789B040B431343BA6831
:103B78005101FA680A4402F5306243F0805343F475
:103B880000431360002318461437BD465DF8047BD4
:103B98007047000080B485B000AF786039607B68FA
:103BA800FB603B681B78BB603B685B78012B61D18D
:103BB800BB685A01FB68134403F510631B6803F0E4
:103BC8000043B3F1004F1FD1BB685A01FB6813448F
:103BD80003F510631B68BA685101FA680A4402F5D4
:103BE800106243F000631360BB685A01FB6813441A
:103BF80003F510631B68BA685101FA680A4402F5B4
:103C0800106243F080431360FB6803F50063DA6BCE
:103C18003B681B7803F00F03012101FA03F39BB201
:103C2800DB43F96801F500611340CB63FB6803F5DA
:103C38000063DA693B681B7803F00F03012101FA7E
:103C480003F39BB2DB43F96801F500611340CB61D4
:103C5800BB685A01FB68134403F510631A68BB6814
:103C68005901FB680B4403F510631946354B1340A3
:103C78000B6060E0BB685A01FB68134403F53063CE
:103C88001B6803F00043B3F1004F1FD1BB685A0112
:103C9800FB68134403F530631B68BA685101FA687E
:103CA8000A4402F5306243F000631360BB685A01AE
:103CB800FB68134403F530631B68BA685101FA685E
:103CC8000A4402F5306243F080431360FB6803F551
:103CD8000063DA6B3B681B7803F00F03012101FADC
:103CE80003F31B04DB43F96801F500611340CB6360
:103CF800FB6803F50063DA693B681B7803F00F0380
:103D0800012101FA03F31B04DB43F96801F50061A3
:103D18001340CB61BB685A01FB68134403F5306359
:103D28001A68BB685901FB680B4403F530631946F0
:103D3800054B13400B60002318461437BD465DF849
:103D4800047B7047007833EC0078F3EF80B58AB0D5
:103D580002AFF860B9601346FB71FB68FB61BB6892
:103D68001B78BB61BB685B78012B40F05C81BB684A
:103D78005B69002B32D1BB695A01FB69134403F517
:103D880010631B69BA695101FA690A4402F51062A5
:103D980023F0FF5323F4C0131361BB695A01FB6975
:103DA800134403F510631B69BA695101FA690A449F
:103DB80002F5106243F400231361BB695A01FB69E1
:103DC800134403F510631B69BA695101FA690A447F
:103DD80002F51062DB0CDB04136174E0BB695A0165
:103DE800FB69134403F510631B69BA695101FA6949
:103DF8000A4402F51062DB0CDB041361BB695A014B
:103E0800FB69134403F510631B69BA695101FA6928
:103E18000A4402F5106223F0FF5323F4C013136120
:103E2800BB695A01FB69134403F510631A69BB683F
:103E38005969BB689B680B44591EBB689B68B1FBFA
:103E4800F3F3D9049D4B0B40B9694801F969014462
:103E580001F5106113430B61BB695A01FB691344F7
:103E680003F510631A69BB685B69C3F31203B96988
:103E78004801F969014401F5106113430B61BB68FE
:103E8800DB78012B1FD1BB695A01FB69134403F589
:103E980010631B69BA695101FA690A4402F5106294
:103EA80023F0C0431361BB695A01FB69134403F54E
:103EB80010631B69BA695101FA690A4402F5106274
:103EC80043F000531361FB79012B4BD1BB681B698D
:103ED800002B09D0BB695A01FB69134403F5106331
:103EE8001A46BB681B695361BB68DB78012B28D174
:103EF800FB6903F500639B6803F48073002B10D102
:103F0800BB695A01FB69134403F510631B68BA695E
:103F18005101FA690A4402F5106243F00053136034
:103F28000FE0BB695A01FB69134403F510631B6872
:103F3800BA695101FA690A4402F5106243F08053E4
:103F48001360BB695A01FB69134403F510631B68CE
:103F5800BA695101FA690A4402F5106243F0044350
:103F680013602FE1BB695A01FB69134403F5106321
:103F78001B68BA695101FA690A4402F5106243F0F4
:103F880004431360BB68DB78012B15D0BB685B6901
:103F9800002B00F01781FB6903F500635A6BBB68BF
:103FA8001B7803F00F03012101FA03F3F96901F506
:103FB800006113434B6305E1FB6903F500639B68EC
:103FC80003F48073002B10D1BB695A01FB691344B9
:103FD80003F510631B68BA695101FA690A4402F5CE
:103FE800106243F0005313600FE0BB695A01FB698C
:103FF800134403F510631B68BA695101FA690A444E
:1040080002F5106243F080531360BB68D968BB683F
:104018001A78BB685B6998B2FB7900930346F86825
:1040280000F02BFACEE0BB695A01FB69134403F593
:1040380030631B69BA695101FA690A4402F53062B2
:10404800DB0CDB041361BB695A01FB69134403F5FC
:1040580030631B69BA695101FA690A4402F5306292
:1040680023F0FF5323F4C0131361BB685B69002B73
:1040780026D1BB695A01FB69134403F530631A69F9
:10408800BB689B68C3F31203B9694801F969014425
:1040980001F5306113430B61BB695A01FB69134495
:1040A80003F530631B69BA695101FA690A4402F5DC
:1040B800306243F40023136136E000BF0000F81FAC
:1040C800BB685A69BB689B6813445A1EBB689B68E7
:1040D800B2FBF3F3FB82BB695A01FB69134403F596
:1040E80030631A69FB8AD904394B0B40B969480116
:1040F800F969014401F5306113430B61BB695A0149
:10410800FB69134403F530631A69BB689B68F98A35
:1041180001FB03F3C3F31203B9694801F9690144C8
:1041280001F5306113430B61FB79012B0DD1BB689D
:10413800DB68002B09D0BB68D968BB695A01FB69E9
:10414800134403F530630A465A61BB68DB78012BD8
:1041580028D1FB6903F500639B6803F48073002B87
:1041680010D1BB695A01FB69134403F530631B681E
:10417800BA695101FA690A4402F5306243F0005302
:1041880013600FE0BB695A01FB69134403F5306300
:104198001B68BA695101FA690A4402F5306243F0B2
:1041A80080531360BB695A01FB69134403F53063FC
:1041B8001B68BA695101FA690A4402F5306243F092
:1041C80004431360002318462037BD4680BD00BF56
:1041D8000000F81F80B487B000AFF860B9601346DC
:1041E800FB71FB687B61BB681B783B61BB685B78D4
:1041F800012B40F0CD80BB685B69002B32D13B6955
:104208005A017B69134403F510631B693A6951012C
:104218007A690A4402F5106223F0FF5323F4C013AD
:1042280013613B695A017B69134403F510631B69E9
:104238003A6951017A690A4402F5106243F400238D
:1042480013613B695A017B69134403F510631B69C9
:104258003A6951017A690A4402F51062DB0CDB0401
:1042680013614EE03B695A017B69134403F51063FF
:104278001B693A6951017A690A4402F51062DB0C3C
:10428800DB0413613B695A017B69134403F510632E
:104298001B693A6951017A690A4402F5106223F0F0
:1042A800FF5323F4C0131361BB685A69BB689B684A
:1042B8009A4203D9BB689A68BB685A613B695A013C
:1042C8007B69134403F510631B693A6951017A69E4
:1042D8000A4402F5106243F4002313613B695A0152
:1042E8007B69134403F510631A69BB685B69C3F300
:1042F8001203396948017969014401F510611343D2
:104308000B61FB79012B1ED1BB681B69002B09D0FF
:104318003B695A017B69134403F510631A46BB686D
:104328001B6953613B695A017B69134403F51063A8
:104338001B683A6951017A690A4402F5106243F030
:104348000443136092E03B695A017B69134403F507
:1043580010631B683A6951017A690A4402F51062D0
:1043680043F004431360BB685B69002B7ED07B6914
:1043780003F500635A6BBB681B7803F00F03012138
:1043880001FA03F3796901F5006113434B636DE0AA
:104398003B695A017B69134403F530631B693A6929
:1043A80051017A690A4402F53062DB0CDB041361BF
:1043B8003B695A017B69134403F530631B693A6909
:1043C80051017A690A4402F5306223F0FF5323F45D
:1043D800C0131361BB685B69002B03D0BB689A6884
:1043E800BB685A613B695A017B69134403F5306322
:1043F8001B693A6951017A690A4402F5306243F44B
:10440800002313613B695A017B69134403F5306348
:104418001A69BB689B68C3F3120339694801796953
:10442800014401F5306113430B61FB79012B0DD178
:10443800BB68DB68002B09D0BB68D9683B695A01A7
:104448007B69134403F530630A465A613B695A0194
:104458007B69134403F530631B683A6951017A6933
:104468000A4402F5306243F00443136000231846FF
:104478001C37BD465DF8047B704780B489B000AF37
:10448800F860B96011461A460B46FB711346BB80AB
:10449800FB687B61BB68FB6197F82830002B1AD159
:1044A800BB8803339B083B610023BB610FE0FB79AA
:1044B8001A037B69134403F580531A46FB691B688A
:1044C8001360FB690433FB61BB690133BB61BA69E3
:1044D8003B699A42EBD3002318462437BD465DF862
:1044E800047B704780B489B000AFF860B9601346A8
:1044F800FB80FB687B61BB68FB61FB8803339B081F
:104508003B610023BB610BE07B6903F580531A68AC
:10451800FB691A60FB690433FB61BB690133BB614A
:10452800BA693B699A42EFD3FB6918462437BD46FE
:104538005DF8047B704780B485B000AF786039605F
:104548007B68FB603B681B78BB603B685B78012B32
:104558002CD1BB685A01FB68134403F510631B6830
:10456800002B12DBBB68002B0FD0BB685A01FB681D
:10457800134403F510631B68BA685101FA680A44CA
:1045880002F5106223F080431360BB685A01FB6890
:10459800134403F510631B68BA685101FA680A44AA
:1045A80002F5106243F4001313602BE0BB685A0154
:1045B800FB68134403F530631B68002B12DBBB68F0
:1045C800002B0FD0BB685A01FB68134403F5306316
:1045D8001B68BA685101FA680A4402F5306223F090
:1045E80080431360BB685A01FB68134403F53063CA
:1045F8001B68BA685101FA680A4402F5306243F44C
:1046080000131360002318461437BD465DF8047B79
:10461800704780B485B000AF786039607B68FB6014
:104628003B681B78BB603B685B78012B28D1BB6873
:104638005A01FB68134403F510631B68BA685101FB
:10464800FA680A4402F5106223F4001313603B6809
:10465800DB78032B03D03B68DB78022B38D1BB68AF
:104668005A01FB68134403F510631B68BA685101CB
:10467800FA680A4402F5106243F08053136027E099
:10468800BB685A01FB68134403F530631B68BA68BA
:104698005101FA680A4402F5306223F400131360EA
:1046A8003B68DB78032B03D03B68DB78022B0FD108
:1046B800BB685A01FB68134403F530631B68BA688A
:1046C8005101FA680A4402F5306243F080531360DE
:1046D800002318461437BD465DF8047B704780B444
:1046E80085B000AF78600B46FB707B68FB60FB68A9
:1046F80003F500631B68FA6802F5006223F4FE63A1
:104708001360FB6803F500631A68FB781B0103F468
:10471800FE63F96801F5006113430B600023184636
:104728001437BD465DF8047B704780B584B000AF90
:1047380078607B68FB60FB6803F500635B68FA6878
:1047480002F5006223F0020353600320FCF7AEF980
:10475800002318461037BD4680BD80B584B000AF31
:1047680078607B68FB60FB6803F500635B68FA6848
:1047780002F5006243F0020353600320FCF796F948
:10478800002318461037BD4680BD80B485B000AF01
:1047980078607B685B69FB607B689B69FA6813409B
:1047A800FB60FB6818461437BD465DF8047B70470C
:1047B80080B485B000AF78607B68FB60FB6803F568
:1047C80000639B69BB60FB6803F50063DB69BA683B
:1047D8001340BB60BB681B0C18461437BD465DF818
:1047E800047B704780B485B000AF78607B68FB605D
:1047F800FB6803F500639B69BB60FB6803F5006316
:10480800DB69BA681340BB60BB689BB218461437B3
:10481800BD465DF8047B704780B485B000AF786012
:104828000B46FB707B68FB60FB785A01FB681344FE
:1048380003F530639B68BB60FB6803F500635B6945
:10484800BA681340BB60BB6818461437BD465DF8AC
:10485800047B704780B487B000AF78600B46FB706C
:104868007B687B617B6903F500631B693B617B693E
:1048780003F500635B6BFB60FB7803F00F03FA68DA
:1048880022FA03F3DB01DBB23A6913433B61FB789D
:104898005A017B69134403F510639B683A69134016
:1048A800BB60BB6818461C37BD465DF8047B704783
:1048B80080B483B000AF78607B685B6903F0010364
:1048C80018460C37BD465DF8047B704780B485B048
:1048D80000AF78607B68FB60FB6803F510631B68BA
:1048E800FA6802F5106223F4FF6323F007031360EC
:1048F800FB6803F500635B68FA6802F5006243F43D
:1049080080735360002318461437BD465DF8047B56
:104918007047000080B487B000AFF8600B467A603B
:10492800FB72FB687B61FB683C3304331B683B61AB
:104938003B69264A93420AD97B6903F530631B68B1
:1049480003F00043B3F1004F01D1002337E07B6946
:1049580003F530631A46002313617B6903F530635E
:104968001B697A6902F5306243F4002313617B699D
:1049780003F530631B697A6902F5306243F0180366
:1049880013617B6903F530631B697A6902F530624C
:1049980043F0C0431361FB7A012B0FD17B6903F508
:1049A80030631A467B6853617B6903F530631B6883
:1049B8007A6902F5306243F08023136000231846B9
:1049C8001C37BD465DF8047B704700BF0A30544F62
:1049D80080B485B000AF78600023FB60FB680133CA
:1049E800FB60FB68134A934201D903231BE07B68F1
:1049F8001B69002BF2DA0023FB607B681B6943F01C
:104A080001027B681A61FB680133FB60FB68094A95
:104A1800934201D9032306E07B681B6903F0010375
:104A2800012BF0D0002318461437BD465DF8047BEF
:104A3800704700BF400D030080B584B000AF7860B8
:104A48000B46FB704FF4077002F02CF90346FB602D
:104A5800FB68002B05D17B680022C3F8BC22022327
:104A680066E07B68FA68C3F8BC227B681B7C002B75
:104A780019D14FF4007302228121786801F099FF5F
:104A88007B6801221A874FF400730222012178689B
:104A980001F08FFF7B680122A3F878217B68102240
:104AA800A3F84E2016E0402302228121786801F005
:104AB80080FF7B6801221A8740230222012178683F
:104AC80001F077FF7B680122A3F878217B68102228
:104AD800A3F84E20082303228221786801F069FF99
:104AE8007B680122A3F84C207B68D3F8C0321B688E
:104AF8009847FB680022C3F81422FB680022C3F819
:104B080018227B681B7C002B09D1FB68D3F8042290
:104B18004FF400730121786802F03AF807E0FB6867
:104B2800D3F8042240230121786802F031F80023E9
:104B380018461037BD4680BD80B584B000AF786098
:104B48000B46FB700023FB738121786801F057FF47
:104B58007B6800221A870121786801F050FF7B6882
:104B68000022A3F878218221786801F048FF7B6849
:104B78000022A3F84C207B680022A3F84E207B6813
:104B8800D3F8BC32002B0ED07B68D3F8C0325B68F8
:104B980098477B68D3F8BC32184602F08BF87B68DC
:104BA8000022C3F8BC22FB7B18461037BD4680BDE7
:104BB80080B586B000AF786039607B68D3F8BC32C6
:104BC8003B610023FB730023BB810023FB753B681B
:104BD8001B7803F06003002B3AD0202B40F097801D
:104BE8003B68DB88002B29D03B681B785BB2002B25
:104BF80011DA7B68D3F8C0329B683A685078396913
:104C08003A68D288984739693B68DB881A467868D9
:104C180001F09DFA82E03B685A783B6983F80022EC
:104C28003B68DB88DAB23B6983F8012239693B6863
:104C3800DB881A46786801F0B6FA6FE07B68D3F82B
:104C4800C0329B683A68507800223968984765E016
:104C58003B685B780B2B4FD801A252F823F000BFBA
:104C6800994C00080F4D0008014D0008014D00083F
:104C7800014D0008014D0008014D0008014D0008D4
:104C8800014D0008014D0008C14C0008E94C00081E
:104C98007B6893F89C32032B07D107F10C0302229F
:104CA8001946786801F053FA30E03968786801F0FD
:104CB800DDF90323FB7529E07B6893F89C32032B0D
:104CC80007D107F10F0301221946786801F03FFA6E
:104CD8001CE03968786801F0C9F90323FB7515E011
:104CE8007B6893F89C32032B0FD03968786801F001
:104CF800BDF90323FB7508E03968786801F0B6F957
:104D08000323FB7502E000BF08E000BF06E0396836
:104D1800786801F0ABF90323FB7500BFFB7D1846EB
:104D28001837BD4680BD00BF80B584B000AF78603D
:104D38000B46FB707B68D3F8C432FB607B68D3F802
:104D4800BC32002B01D1032349E07B68D3F8BC3285
:104D5800BB60FA78796813469B0013449B000B44A8
:104D680018331B68002B29D0FA78796813469B0002
:104D780013449B000B4418331A68F978F8680B46FB
:104D8800DB005B1A9B00034444331B68B2FBF3F15E
:104D980003FB01F3D31A002B10D1FA787968134674
:104DA8009B0013449B000B44183300221A60F978C7
:104DB80000230022786801F0CAFE0FE0BB680022D9
:104DC800C3F814227B68D3F8C0321B69BA68D2F8DA
:104DD8000802BA6802F50471FA7898470023184661
:104DE8001037BD4680BD80B584B000AF78600B46F3
:104DF800FB707B68D3F8BC32FB607B68D3F8BC32AD
:104E0800002B01D1032315E0FB781946786801F0DF
:104E1800E0FE0246FB68C3F80C227B68D3F8C03278
:104E2800DB68FA68D2F80402FA6802F503721146E0
:104E38009847002318461037BD4680BD80B584B01A
:104E480000AF78607B68D3F8BC32FB607B68D3F82E
:104E5800C032002B15D0FB6893F80032FF2B10D01E
:104E68007B68D3F8C0329B68FA6892F80002F96848
:104E7800FA6892F8012292B29847FB68FF2283F8F9
:104E88000022002318461037BD4680BD80B483B089
:104E980000AF78607B6843221A80034B18460C37B2
:104EA800BD465DF8047B70479400002080B483B051
:104EB80000AF78607B6843221A80034B18460C3792
:104EC800BD465DF8047B70475000002080B483B075
:104ED80000AF78607B6843221A80034B18460C3772
:104EE800BD465DF8047B7047D800002080B483B0CD
:104EF80000AF78607B680A221A80034B18460C378B
:104F0800BD465DF8047B70470C00002080B483B078
:104F180000AF786039603B68002B01D1032304E0BF
:104F28007B683A68C3F8C022002318460C37BD4690
:104F38005DF8047B704780B487B000AFF860B96053
:104F48007A60FB68D3F8BC327B617B69BA68C3F8C6
:104F580008227B697A68C3F81022002318461C3798
:104F6800BD465DF8047B704780B485B000AF7860BB
:104F780039607B68D3F8BC32FB60FB683A68C3F8D9
:104F88000422002318461437BD465DF8047B704799
:104F980080B584B000AF78607B68D3F8BC32BB6062
:104FA8000123FB737B68D3F8BC32002B01D10323A8
:104FB8001AE0BB68D3F81432002B14D1BB68012265
:104FC800C3F81422BB68D3F810227B68DA62BB6886
:104FD800D3F80822BB68D3F810328121786801F031
:104FE800B6FD0023FB73FB7B18461037BD4680BD1A
:104FF80080B584B000AF78607B68D3F8BC32FB60C2
:105008007B68D3F8BC32002B01D1032316E07B6800
:105018001B7C002B09D1FB68D3F804224FF40073E2
:105028000121786801F0B4FD07E0FB68D3F8042299
:1050380040230121786801F0ABFD002318461037A2
:10504800BD4680BD80B586B000AFF860B960134634
:10505800FB71FB68002B01D1032325E0FB68D3F823
:10506800B832002B03D0FB680022C3F8B822FB68D3
:10507800D3F8CC32002B03D0FB680022C3F8CC2233
:10508800BB68002B03D0FB68BA68C3F8B422FB687E
:10509800012283F89C22FB68FA791A70F86801F0FB
:1050A80021FC0346FB75FB7D18461837BD4680BDBD
:1050B80080B584B000AF786039600023FB813B681D
:1050C800002B01D1032310E07B683A68C3F8B822AB
:1050D8007B68D3F8B8329B6A07F10E0210469847EE
:1050E80002467B68C3F8CC22002318461037BD4619
:1050F80080BD80B582B000AF7860786801F03EFC72
:10510800034618460837BD4680BD80B483B000AF5B
:105118007860002318460C37BD465DF8047B70475D
:1051280080B584B000AF78600B46FB700323FB7337
:105138007B68D3F8B832002B09D07B68D3F8B83233
:105148001B68FA781146786898470346FB73FB7B1F
:1051580018461037BD4680BD80B582B000AF786074
:105168000B46FB707B68D3F8B832002B07D07B68FE
:10517800D3F8B8325B68FA78114678689847002304
:1051880018460837BD4680BD80B584B000AF78604A
:1051980039607B6803F2AA233968184600F02CFFAF
:1051A8007B680122C3F894227B68B3F8B0321A46B0
:1051B8007B68C3F898227B6893F8AA3203F01F0330
:1051C800012B0ED0012B02D3022B14D01DE07B68DB
:1051D80003F2AA231946786800F018FA0346FB730D
:1051E80020E07B6803F2AA231946786800F07CFA6D
:1051F8000346FB7316E07B6803F2AA231946786816
:1052080000F0B8FA0346FB730CE07B6893F8AA3207
:1052180023F07F03DBB21946786801F00FFC0346E0
:10522800FB7300BFFB7B18461037BD4680BD80B5B9
:1052380086B000AFF8600B467A60FB72FB7A002BF1
:1052480037D1FB6803F5AA733B61FB68D3F8943246
:10525800032B4AD13B699A683B69DB689A4213D9A8
:105268003B699A683B69DB68D21A3B699A603B697B
:10527800DA683B699B68934228BF13461A467968E7
:10528800F86800F0ADFF30E0FB68D3F8B8321B696E
:10529800002B0AD0FB6893F89C32032B05D1FB68DE
:1052A800D3F8B8321B69F8689847F86800F0A9FF86
:1052B8001BE0FB68D3F8B8329B69002B13D0FB685E
:1052C80093F89C32032B0ED1FB68D3F8B8329B6954
:1052D800FA7A1146F86898470346FB75FB7D002B60
:1052E80003D0FB7D02E0032300E0002318461837B3
:1052F800BD4680BD80B586B000AFF8600B467A60C9
:10530800FB72FB7A002B6AD1FB6814333B61FB68A4
:10531800D3F89432022B55D13B699A683B69DB6814
:105328009A4214D93B699A683B69DB68D21A3B698F
:105338009A603B699B681A467968F86800F022FF12
:10534800002300220021F86801F022FC3AE03B69C2
:10535800DA683B699B689A421CD13B695A683B6989
:10536800DB689A4216D33B695A68FB68D3F89832CF
:105378009A420FD200220021F86800F003FFFB6870
:105388000022C3F89822002300220021F86801F0C7
:10539800FFFB17E0FB68D3F8B832DB68002B0AD0B4
:1053A800FB6893F89C32032B05D1FB68D3F8B8321D
:1053B800DB68F86898478021F86801F03FFBF868D7
:1053C80000F032FFFB6893F8A032012B23D1F86874
:1053D800FFF79BFEFB68002283F8A0221BE0FB6816
:1053E800D3F8B8325B69002B13D0FB6893F89C3272
:1053F800032B0ED1FB68D3F8B8325B69FA7A1146F1
:10540800F86898470346FB75FB7D002B03D0FB7DAE
:1054180002E0032300E0002318461837BD4680BD8C
:1054280080B582B000AF78607B68012283F89C2247
:105438007B680022C3F894227B6800225A607B684C
:105448000022C3F8A4227B68D3F8BC32002B09D011
:105458007B68D3F8B8325B687A685268D2B2114672
:1054680078689847402300220021786801F0A1FA63
:105478007B680122A3F864217B684022C3F860217D
:10548800402300228021786801F093FA7B6801228A
:105498009A847B6840221A62002318460837BD4662
:1054A80080BD80B483B000AF78600B46FB707B682A
:1054B800FA781A74002318460C37BD465DF8047B49
:1054C800704780B483B000AF78607B6893F89C2203
:1054D8007B6883F89D227B68042283F89C22002342
:1054E80018460C37BD465DF8047B704780B483B01E
:1054F80000AF78607B6893F89C32042B05D17B68F9
:1055080093F89D227B6883F89C22002318460C3769
:10551800BD465DF8047B704780B582B000AF786007
:105528007B6893F89C32032B0BD17B68D3F8B83295
:10553800DB69002B05D07B68D3F8B832DB69786863
:105548009847002318460837BD4680BD80B483B00D
:1055580000AF78600B46FB70002318460C37BD4639
:105568005DF8047B704780B483B000AF78600B4669
:10557800FB70002318460C37BD465DF8047B704766
:1055880080B483B000AF7860002318460C37BD465E
:105598005DF8047B704780B582B000AF78607B68A7
:1055A800012283F89C227B68D3F8B832002B09D0FB
:1055B8007B68D3F8B8325B687A685268D2B2114611
:1055C80078689847002318460837BD4680BD80B4E0
:1055D80087B000AF78607B687B617B691B787B82D2
:1055E8007B6901337B617B691B783B823B8A1B02A9
:1055F8001AB2B7F9123013431BB2FB81FB89184664
:105608001C37BD465DF8047B7047000080B584B048
:1056180000AF786039600023FB733B681B7803F0A8
:105628006003202B04D0402B02D0002B0AD050E07E
:105638007B68D3F8B8329B6839687868984703461E
:10564800FB734BE03B685B78092B3CD801A252F80E
:1056580023F000BFB1560008C5560008CF56000811
:10566800BB560008CF5600088F560008855600081C
:10567800CF560008A7560008995600083968786878
:1056880000F0CEF924E03968786800F033FB1FE0B9
:105698003968786800F070FB0346FB7318E03968D6
:1056A800786800F00DFC13E03968786800F03CFC7D
:1056B8000EE03968786800F06AFC09E039687868B3
:1056C80000F079FC04E03968786800F0CFFC00BF8E
:1056D80004E03968786800F0C9FC00BFFB7B184615
:1056E8001037BD4680BD00BF80B584B000AF78607C
:1056F80039600023FB733B681B7803F06003202BA1
:1057080003D0402B01D0002B2AD17B6893F89C3220
:10571800013B022B1DD83B689B88DBB2012B13D8B9
:105728007B68D3F8B8329B6839687868984703462D
:10573800FB733B68DB88002B10D1FB7B002B0DD162
:10574800786800F05EFD09E03968786800F08EFC42
:1057580004E03968786800F089FC00E000BF04E0E4
:105768003968786800F082FC00BFFB7B1846103768
:10577800BD4680BD80B584B000AF78603960002335
:10578800FB733B689B88BB733B681B7803F0600323
:10579800202B04D0402B02D0002B0AD035E17B68A7
:1057A800D3F8B8329B683968786898470346FB7322
:1057B80030E13B685B78012B3ED0032B02D0002BF5
:1057C80077D01CE17B6893F89C32022B02D0032B24
:1057D80015D02BE0BB7B002B0CD0BB7B802B09D0DA
:1057E800BB7B1946786801F029F98021786801F0B7
:1057F80025F920E03968786800F038FC1BE03B6840
:105808005B88002B0ED1BB7B002B0BD0BB7B802B86
:1058180008D03B68DB88002B04D1BB7B194678682D
:1058280001F00CF9786800F0ECFC04E0396878685D
:1058380000F01CFC00BFE7E07B6893F89C32022B69
:1058480002D0032B15D02DE0BB7B002B0CD0BB7BEB
:10585800802B09D0BB7B1946786801F0EFF88021CE
:10586800786801F0EBF823E03968786800F0FEFB0F
:105878001EE03B685B88002B19D1BB7B03F07F03DC
:10588800002B04D0BB7B1946786801F0F6F87868DD
:1058980000F0B7FC7B68D3F8B8329B683968786841
:1058A800984704E03968786800F0E0FB00E000BF42
:1058B800AAE07B6893F89C32022B02D0032B32D0EB
:1058C80097E0BB7B002B07D0BB7B802B04D03968CB
:1058D800786800F0CBFB91E097F90E30002B0BDADB
:1058E800BB7B03F07F0213469B0013449B001033DD
:1058F8007A68134404330BE0BB7B03F07F02134642
:105908009B0013449B0003F5A8737A68134404337F
:10591800BB60BB6800221A60BB680222194678681F
:1059280000F015FC6AE097F90E30002B11DABB7B0A
:1059380003F00F02796813469B0013449B000B4445
:1059480024331B88002B17D13968786800F08EFB48
:1059580054E0BB7B03F00F02796813469B001344A5
:105968009B000B4403F5B2731B88002B04D13968E4
:10597800786800F07BFB41E097F90E30002B0BDADA
:10598800BB7B03F07F0213469B0013449B0010333C
:105998007A68134404330BE0BB7B03F07F021346A1
:1059A8009B0013449B0003F5A8737A6813440433DF
:1059B800BB60BB7B002B02D0BB7B802B03D1BB68B9
:1059C80000221A600EE0BB7B1946786801F074F873
:1059D8000346002B03D0BB6801221A6002E0BB68B3
:1059E80000221A60BB6802221946786800F0AFFBF3
:1059F80004E03968786800F039FB00BF04E03968D2
:105A0800786800F033FB00BF04E03968786800F07C
:105A18002DFB00BFFB7B18461037BD4680BD00003C
:105A280080B584B000AF7860396000233B810023E3
:105A3800FB600023FB723B685B881B0A9BB2013B3F
:105A4800062B00F2288101A252F823F0715A0008AF
:105A5800895A0008C95A00089F5C00089F5C000822
:105A68003F5C00086B5C00087B68D3F8B4321B68A5
:105A78007A68127C07F1080110469847F86012E12D
:105A88007B681B7C002B0DD17B68D3F8B8329B6AEE
:105A980007F1080210469847F860FB6801330222B4
:105AA8001A7000E17B68D3F8B832DB6A07F10802A4
:105AB80010469847F860FB68013302221A70F2E03A
:105AC8003B685B88DBB2052B00F2AC8001A252F880
